S00F0000323035303838522E737265638C
S11300000C942A000C943E000C943C000C943C008C
S11300100C943C000C943C000C943C000C943C006C
S11300200C943C000C949F000C943C000C943C00F9
S11300300C943C000C943C000C943C000C943C004C
S11300400C943C000C943C000C943C000C943C003C
S11300500C943C0011241FBECFE5D8E0DEBFCDBF19
S113006020E0A0E6B0E001C01D92A836B207E1F797
S11300700E9455010C9428030C9400001F920F92C7
S11300800FB60F9211242F933F934F935F936F9367
S11300907F938F939F93AF93BF93EF93FF9380913D
S11300A0600090916100892B51F48EB581608EBD02
S11300B081E090E090936100809360002FC01EBCAB
S11300C08CB59DB59093630080936200609162004B
S11300D07091630080E090E00E94090220E034E225
S11300E044E759E40E94BB0220E034E244EF5AE4BE
S11300F00E94970120E030E048E652E40E94970114
S11301006093640070936500809366009093670029
S11301101DBC1CBC1092610010926000FF91EF9115
S1130120BF91AF919F918F917F916F915F914F910B
S11301303F912F910F900FBE0F901F9018951F9213
S11301400F920FB60F9211242F933F934F935F9307
S11301506F937F938F939F93AF93BF93EF93FF938B
S11301601EBC8FEF9FEF90936300809362006091B9
S113017062007091630080E090E00E94090220E038
S113018034E244E759E40E94BB0220E034E244EF45
S11301905AE40E94970120E030E048E652E40E94CD
S11301A09701609364007093650080936600909358
S11301B067001DBC1CBC1092610010926000FF918E
S11301C0EF91BF91AF919F918F917F916F915F91CB
S11301D04F913F912F910F900FBE0F901F90189544
S11301E08BB382608BBB88E28A95F1F78BB38D7FEA
S11301F08BBB8BBB88E28A95F1F7089585B3886041
S113020085BB85B38F7E85BB85B3806285BB85B393
S11302108F7B85BB089585B3877F85BB85B38F7E30
S113022085BB85B3806285BB85B38F7B85BB089511
S113023085B3877F85BB85B38F7E85BB85B38F7D73
S113024085BB85B38F7B85BB08950E94F0006091C8
S1130250640070916500809166009091670020E0D1
S113026030E040EA50E40E9492018823DCF40E94CA
S113027018012FEF83ED90E3215080409040E1F787
S113028000C000000E940B012FEF83ED90E321508A
S113029080409040E1F700C000000E9418010E94D5
S11302A0250108950E94FE00089584B3886084BBEC
S11302B084B3806184BB84B3806284BB84B3806470
S11302C084BB8AB382608ABB81B38B7F81BB82B3D8
S11302D08B7F82BB2FE788E391E0215080409040E0
S11302E0E1F700C000008BB780648BBF85B78160E5
S11302F085BF89B7846089BF78942FEF84E39CE03D
S1130300215080409040E1F700C000000E94250188
S11303102FEF81EE94E0215080409040E1F700C03F
S11303200000F4CF0E94460208F481E008950E9480
S1130330AB010C9481020E947A0258F00E9473026D
S113034040F029F45F3F29F00C946A0251110C9497
S1130350B5020C9470020E94920268F39923B1F3DF
S1130360552391F3951B550BBB27AA2762177307D7
S1130370840738F09F5F5F4F220F331F441FAA1F6B
S1130380A9F335D00E2E3AF0E0E832D09150504027
S1130390E695001CCAF72BD0FE2F29D0660F771FD5
S11303A0881FBB1F261737074807AB07B0E809F0BB
S11303B0BB0B802DBF01FF2793585F4F3AF09E3F40
S11303C0510578F00C946A020C94B5025F3FE4F393
S11303D0983ED4F3869577956795B795F7959F5F83
S11303E0C9F7880F911D9695879597F90895E1E0CF
S11303F0660F771F881FBB1F621773078407BA072E
S113040020F0621B730B840BBA0BEE1F88F7E09588
S11304100895E89409C097FB3EF4909580957095F3
S113042061957F4F8F4F9F4F9923A9F0F92F96E93C
S1130430BB279395F695879577956795B795F111B1
S1130440F8CFFAF4BB0F11F460FF1BC06F5F7F4F4E
S11304508F4F9F4F16C0882311F096E911C0772360
S113046021F09EE8872F762F05C0662371F096E869
S1130470862F70E060E02AF09A95660F771F881F38
S1130480DAF7880F9695879597F90895990F0008DC
S1130490550FAA0BE0E8FEEF16161706E807F90752
S11304A0C0F012161306E407F50798F0621B730BED
S11304B0840B950B39F40A2661F0232B242B252B6E
S11304C021F408950A2609F4A140A6958FEF811D11
S11304D0811D089597F99F6780E870E060E00895B2
S11304E09FEF80EC089500240A9416161706180648
S11304F00906089500240A94121613061406050624
S11305000895092E0394000C11F4882352F0BB0FB4
S113051040F4BF2B11F460FF04C06F5F7F4F8F4F17
S11305209F4F089557FD9058440F551F59F05F3F52
S113053071F04795880F97FB991F61F09F3F79F001
S113054087950895121613061406551FF2CF469583
S1130550F1DF08C0161617061806991FF1CF869505
S11305607105610508940895E894BB2766277727E9
S1130570CB0197F908950E94CE020C9481020E9447
S1130580730238F00E947A0220F0952311F00C9443
S11305906A020C94700211240C94B5020E94920217
S11305A070F3959FC1F3950F50E0551F629FF001C2
S11305B0729FBB27F00DB11D639FAA27F00DB11DDB
S11305C0AA1F649F6627B00DA11D661F829F222764
S11305D0B00DA11D621F739FB00DA11D621F839FEB
S11305E0A00D611D221F749F3327A00D611D231FC1
S11305F0849F600D211D822F762F6A2F11249F570F
S113060050409AF0F1F088234AF0EE0FFF1FBB1F11
S1130610661F771F881F91505040A9F79E3F5105D0
S113062080F00C946A020C94B5025F3FE4F3983EA8
S1130630D4F3869577956795B795F795E7959F5F7A
S1130640C1F7FE2B880F911D9695879597F908950C
S1070650F894FFCF48
S9030000FC
